:100000000C9456000C9473000C9473000C947300C1
:100010000C9473000C9473000C9473000C94730094
:100020000C9473000C9425020C9473000C947300D0
:100030000C9473000C9473000C9473000C94730074
:100040000C9473000C9473000C9473000C94730064
:100050000C9473000C9473000C9473000C943A028B
:100060000C9473000C9473000C9473000C94730044
:100070000C9473000C9473000C9473000C94730034
:100080000C9473000C9473000C9473000C94730024
:100090000C944C020C9473000C9473000C94730039
:1000A0000C9473000C9473000C94730011241FBE05
:1000B000CFEFDAE0DEBFCDBF11E0A0E0B1E0ECECC5
:1000C000F0E102C005900D92A83AB107D9F721E0FE
:1000D000A8EAB1E001C01D92A63DB207E1F70E9477
:1000E0006B040C9438080C940000862768E097E0B5
:1000F000880F08F489276A95D9F708959C01CB01E8
:100100005AB1542B5AB96BB1542F509556236BB139
:10011000462B6FB7F894820F931F2817390711F4F5
:100120006FBF0895F90171919F01E8E04BB900009C
:1001300000C077FF5BB9770F000000C000C000C0AF
:100140005BB900C000C000C000C000C000C000C05B
:1001500000C0EA9559F7E1CF9B01220F331F620FD0
:10016000731F0E947E008FEA94E00197F1F700C0B0
:100170000000089540E20C94AC0040E20C947E0034
:1001800027E030E090E05C98EFE8F1E03197F1F79C
:1001900000C00000AC01022E02C0559547950A949C
:1001A000E2F7BA016170772740FD06C0EFE8F1E0A1
:1001B0003197F1F700C000005C9AEFE8F1E0319769
:1001C000F1F700C00000672B31F0EFE8F1E0319764
:1001D000F1F700C0000021503109A8F65C988FE8C3
:1001E00091E00197F1F700C000005C9AEFE8F1E0C0
:1001F0003197F1F700C0000008955C988FED9EE202
:100200000197F1F700C000005C9A8FED91E0019733
:10021000F1F700C000005C988FEC97E00197F1F7D0
:1002200000C000005C9A9AE19A95F1F700C0089529
:100230009C015C98E1E0F0E02A9885B1A62FA150DE
:10024000BB0BAD01DF0102C0AA0FBB1F4A95E2F74D
:10025000AD014223532390E0452B09F094E0892B14
:1002600085B929988FE891E00197F1F700C0000067
:10027000299AAFE8B1E01197F1F700C00000615092
:10028000D9F62A985C9A0895CF93DF93C8E8D1E015
:1002900060E1899199910E94180121E0CE39D2073D
:1002A000B9F7C0E0D1E089919991009781F48FEF7F
:1002B0009BED25E0815090402040E1F700C0000018
:1002C00081E0C838D80779F7DF91CF91089569E0C8
:1002D0000E941801F5CF90917A00976090937A0070
:1002E00090E490937B0090937C00883028F18850B4
:1002F00090917B00906290937B0090917C0087703E
:10030000892B80937C0080917A00806880937A00AA
:100310008FE39FE10197F1F700C0000080917A0020
:10032000806480937A0080917A0086FDFCCF809172
:10033000780090917900089590917B009F7DDBCFAC
:100340008EE580937C0080917A00806880937A00AB
:1003500080917B008F7D80937B008FE39FE10197ED
:10036000F1F700C0000080917A00806480937A00E9
:1003700080917A0086FDFCCF80917A008064809322
:100380007A0080917A0086FDFCCF209178008091E0
:100390007900382F032E000C440B550B64EB7BE2E5
:1003A00081E190E00E94C706C901089587EC80931F
:1003B0007C0080E280937B0080917A00877D80932F
:1003C0007A0080917A00806880937A008FE39FE1C1
:1003D0000197F1F700C0000080917A00806480935B
:1003E0007A0080917A0086FDFCCF80917A0080644B
:1003F00080937A0080917A0086FDFCCF809178000E
:10040000909179000895CF93DF9300D0CDB7DEB7F8
:100410002091D2013091D3012115310511F426ED3F
:1004200031E0CE010196821B930B0F900F90DF916C
:10043000CF910895F894880F8093BA0085EC80934B
:10044000BC008FEF8093B50108958F938FB78F9382
:100450009F937894189909C08091BA019091BB013B
:1004600001969093BB018093BA019F918F918FBFAA
:100470008F9118958F938FB78F939F938091CC0115
:100480009091CD0101969093CD018093CC019F91E5
:100490008F918FBF8F9118951F920F920FB60F9269
:1004A00011242F933F934F935F936F937F938F9379
:1004B0009F93AF93BF93EF93FF938091B900982FD1
:1004C000987F9038A9F138F4992309F4A9C190369E
:1004D000C1F085ECA6C1887E883AD9F700C000C07B
:1004E0000000E091A101E53108F01CC1E7508091C6
:1004F000B501ED3008F029C1F0E0E65CF74F0C944F
:10050000E60685EC8093BC008FEF8093B501FF91E8
:10051000EF91BF91AF919F918F917F916F915F917B
:100520004F913F912F910F900FBE0F901F901895F4
:100530009091B5019F3F09F064C06091BB0060934A
:10054000A10180E00E9475008093B6011092B50170
:100550001092AA01E091A101E53168F4F0E0E95BB5
:10056000F74F0C94E6068091CE019091CF019093C5
:10057000A9018093A80185EC8093BC008091A10122
:10058000823929F68091BC01823009F685E88A9586
:10059000F1F700002D98BBCF8091AE019091AF0193
:1005A000E6CF8091C9019091CA01E1CF8091B3015A
:1005B0009091B401DCCF8091D0019091D101D7CF3F
:1005C0008091C5019091C601D2CF8091BF019091D9
:1005D000C001CDCF8091BD019091BE01C8CF809167
:1005E000AC019091AD01C3CF8091B1019091B20166
:1005F000BECF0E940302BBCF8091C1019091C20186
:10060000B6CF8091B601911110C09091BB0090932C
:10061000BC016091BB000E9475008093B60180917F
:10062000B5018F5F8093B501A6CF2091BB009130BB
:1006300009F072C0281370C08091A101873829F495
:100640008091BC0180939F01EACF8D3841F4809165
:10065000BC018F3F11F4469AE2CF4698E0CF8E3826
:1006600041F48091BC018F3F11F42C9AD8CF2C9883
:10067000D6CF8F3841F48091BC018F3F11F42E9A70
:10068000CECF2E98CCCF803941F48091BC018F3FE2
:1006900011F4479AC4CF4798C2CF813941F4809171
:1006A000BC018F3F11F4729ABACF7298B8CF8239D9
:1006B00089F48091BC018F3F11F42D9AB0CF813025
:1006C00029F42D9A82E08093BC01A9CF2D98109235
:1006D000BC01A5CF833941F48091BC0187BD8091D5
:1006E000BC0180939E019BCF843941F48091BC0171
:1006F0008093B80181E08093B00191CF853929F4CE
:100700008091BC018093B701F5CF863929F480919F
:10071000BC018093B901EECF8091AA018F5F8093D5
:10072000AA017DCFE73821F0ED58EA3008F076C015
:100730008091B6018093BB008FEF8093B6018091CA
:10074000B5018F5F8093B501C4CE81110BC080913C
:10075000A8018093BB006091BB008091B6010E940C
:100760007500EBCF813019F48091A901F2CF82306E
:10077000B1F48091B6018093BB00E1CF811103C039
:100780008091B801E6CF813019F48091B701E1CFB3
:10079000823019F48091B901DCCF833051F38FEFAF
:1007A0008093BB0029C0811136C08091A001D1CFB8
:1007B000811131C0369B06C08FEFCBCF81112BC08A
:1007C0001C99FACF1092BB00C6CF811124C01E9B8A
:1007D000F9CFF2CF81111FC0379BF4CFEDCF81113C
:1007E00003C0629BEFCFE8CF813019F28FEF809387
:1007F000BB008EEF8093B5018091AA018F5F80933B
:10080000AA019DCF811107C01D9BDCCFD5CF8111DF
:1008100002C087B59ECF813011F6ABCF8FEFABCF43
:1008200085ED8093BC0073CECF93DF9310BA88E739
:100830008AB91BB81DB886EF84B980EC87B917BC9C
:1008400081E085BD81E884BDEEE6F0E080818160D5
:10085000808380E890E00FB6F894809361009093D5
:1008600061000FBE8AE20E941A02E8E6F0E0808191
:1008700081608083EBE6F0E0808181608083789402
:10088000C7EBD1E08FEF898388838A8361E070E0D2
:10089000CE010E94BA000E9444010E94FD0019820C
:1008A00018821A8261E070E0CE010E94BA0082EDE7
:1008B00087BD88E199E20FB6F894A895809360000F
:1008C0000FBE909360001092A0018FE180939F0172
:1008D000DF91CF91089500D000D0CDB7DEB70E9450
:1008E000140410E001ED5EE1F52E499905C08091F8
:1008F000AA018F5F8093AA018091AA01833340F0FF
:100900000093BC008AE20E941A021092AA01789415
:10091000A8958091CC019091CD0183319A4748F1FF
:100920002091BA013091BB01F29EC001F39E900D5F
:1009300011249093BE018093BD011092BB011092CF
:10094000BA011092CD011092CC0120919E012E3F50
:1009500081F48133914118F087B58F5F87BD809115
:10096000BD019091BE0180319E4018F487B5815041
:1009700087BD8091B001882341F061E070E087EB92
:1009800091E00E94BA001092B00190919F019032C4
:1009900000F58091A001981758F481508093A00130
:1009A00088E50E94C0008091A0018F710E94C00064
:1009B0008091A00190919F01891758F48F5F8093D7
:1009C000A00188E50E94C0008091A0018F710E9463
:1009D000C0001A3058F41F5FEFEFE10FEA3008F063
:1009E00044C0F0E0E45AF74F0C94E60687E00E941A
:1009F0006B019093CF018093CE0110E076CF86E01B
:100A00000E946B019093AF018093AE016ECF85E0A1
:100A10000E946B019093CA018093C90166CF84E064
:100A20000E946B019093B4018093B3015ECF81E08B
:100A30000E946B019093D1018093D00156CF80E04A
:100A40000E946B019093C6018093C5014ECF0E9416
:100A5000A0019093AD018093AC0147CF0E94D601D5
:100A60009093B2018093B10140CF8AE00E946B0164
:100A70009C019093C0018093BF018091C30190912C
:100A8000C4018217930720F43093C4012093C3015B
:100A90008091C7019091C8012817390720F430933D
:100AA000C8012093C7018091AB018F5F8093AB0198
:100AB0008D3308F41ACF2091C3013091C401809185
:100AC000C7019091C801820F931F96958795281BA7
:100AD000390BC901B0E0A0E089839A83AB83BC8362
:100AE000B901CD010E94CC0524EF3DEF44E35FE363
:100AF00069837A838B839C8369817A818B819C81D2
:100B00000E94320669837A838B839C8369817A8110
:100B10008B819C810E949D057093C2016093C101ED
:100B2000A0E0B4E0B093C801A093C7011092C40143
:100B30001092C3011092AB01D8CE0E94110688F02A
:100B40009F5798F0B92F9927B751B0F0E1F0660F91
:100B5000771F881F991F1AF0BA95C9F714C0B130D2
:100B600091F00E942B06B1E008950C942B06672F9C
:100B7000782F8827B85F39F0B93FCCF38695779501
:100B80006795B395D9F73EF49095809570956195EA
:100B90007F4F8F4F9F4F0895E89409C097FB3EF415
:100BA00090958095709561957F4F8F4F9F4F9923BA
:100BB000A9F0F92F96E9BB279395F6958795779538
:100BC0006795B795F111F8CFFAF4BB0F11F460FFF8
:100BD0001BC06F5F7F4F8F4F9F4F16C0882311F050
:100BE00096E911C0772321F09EE8872F762F05C064
:100BF000662371F096E8862F70E060E02AF09A95FF
:100C0000660F771F881FDAF7880F9695879597F9F3
:100C1000089557FD9058440F551F59F05F3F71F0EC
:100C20004795880F97FB991F61F09F3F79F0879553
:100C30000895121613061406551FF2CF4695F1DFDC
:100C400008C0161617061806991FF1CF869571056C
:100C5000610508940895E894BB2766277727CB01A0
:100C600097F908950E9445060C94B6060E94A806BE
:100C700038F00E94AF0620F0952311F00C949F06E7
:100C80000C94A50611240C942C060E94090670F3FE
:100C9000959FC1F3950F50E0551F629FF001729F21
:100CA000BB27F00DB11D639FAA27F00DB11DAA1F30
:100CB000649F6627B00DA11D661F829F2227B00D7D
:100CC000A11D621F739FB00DA11D621F839FA00D08
:100CD000611D221F749F3327A00D611D231F849F58
:100CE000600D211D822F762F6A2F11249F575040AF
:100CF0009AF0F1F088234AF0EE0FFF1FBB1F661F2A
:100D0000771F881F91505040A9F79E3F510580F0F2
:100D10000C949F060C942C065F3FE4F3983ED4F3AA
:100D2000869577956795B795F795E7959F5FC1F796
:100D3000FE2B880F911D9695879597F9089597F941
:100D40009F6780E870E060E008959FEF80EC089571
:100D500000240A941616170618060906089500249A
:100D60000A9412161306140605060895092E039414
:100D7000000C11F4882352F0BB0F40F4BF2B11F488
:100D800060FF04C06F5F7F4F8F4F9F4F0895052E08
:100D900097FB1EF400940E94DE0657FD07D00E94C8
:100DA000EC0607FC03D04EF40C94DE0650954095FB
:100DB000309521953F4F4F4F5F4F08959095809507
:100DC000709561957F4F8F4F9F4F0895EE0FFF1FD6
:100DD0000590F491E02D0994A1E21A2EAA1BBB1BE9
:100DE000FD010DC0AA1FBB1FEE1FFF1FA217B307F7
:100DF000E407F50720F0A21BB30BE40BF50B661F0D
:100E0000771F881F991F1A9469F7609570958095D0
:100E100090959B01AC01BD01CF0108950F931F93E5
:100E2000CF93DF938230910510F482E090E0E0915F
:100E3000D401F091D50130E020E0B0E0A0E030979F
:100E400099F42115310509F447C0281B390B2430CA
:100E50003105C0F58A819B816115710571F1FB0136
:100E600093838283FE0111C04081518102811381ED
:100E700048175907F8F04817590799F4109761F087
:100E800012960C93129713961C933296CF01DF9112
:100E9000CF911F910F9108950093D4011093D50124
:100EA000F4CF2115310519F04217530718F49A01B0
:100EB000BD01EF01DF01F801C2CF9093D50180930E
:100EC000D401D0CFFE01E20FF31F81939193225002
:100ED000310939832883DACF2091D2013091D301AF
:100EE000232B41F42091A4013091A5013093D3012B
:100EF0002093D2012091A2013091A3012115310547
:100F000041F42DB73EB74091A6015091A701241B93
:100F1000350BE091D201F091D301E217F307A0F471
:100F20002E1B3F0B2817390778F0AC014E5F5F4F3F
:100F30002417350748F04E0F5F1F5093D30140939D
:100F4000D20181939193A2CFF0E0E0E09FCFCF93C5
:100F5000DF930097E9F0FC01329713821282C0916F
:100F6000D401D091D501DE0130E020E02097A1F43A
:100F700020813181820F931F2091D2013091D301C2
:100F80002817390709F067C0F093D301E093D20125
:100F9000DF91CF910895DA01AE17BF0708F040C086
:100FA00012964D915C9113979D014115510599F74A
:100FB000D9011396FC93EE9312974D915D91A40F76
:100FC000B51FEA17FB0779F4808191810296840F9F
:100FD000951FD90111969C938E93828193811396CC
:100FE0009C938E931297B0E0A0E08A819B8100973A
:100FF000B9F5FE0181919191E80FF91F8091D2011D
:101000009091D3018E179F0719F6109761F51092F2
:10101000D5011092D401D093D301C093D201B8CF9F
:10102000B383A28340815181840F951FA817B9070C
:1010300071F44E5F5F4F8D919C911197480F591F2E
:101040005183408312968D919C91938382832115C5
:10105000310509F0ADCFF093D501E093D40198CFDD
:10106000DE01EC01C2CF13961C921E921297D3CFD1
:10107000F894FFCFD303A503A503A503A503BE03DF
:10108000D803DE03E503EA03EF0302040704B30217
:10109000CC02D102D602DB02E002E502BB02EA0288
:1010A000EF02F402F902BB02BB02BB02BB02BB02AD
:1010B000BB02BB02BB02FC02FF04070535050F059E
:0C10C000170535051F05270535052E0511
:1010CC001100000001000000C100A801B1014501A0
:1010DC000401C50080016C01C600BD018401C7007C
:1010EC00BD018401BD00020111000000F2000001ED
:1010FC000001820126000801E00000010401080142
:10110C000B010C0111010D010E010001040108017C
:10111C00130114012F0129012401E1000001040134
:10112C0008010B010C0111010D010E01000104015C
:10113C000801130114012F012901240126000801C3
:10114C00FD000001080129008000F801460205039A
:10115C00400440054006400740084009030AFE1FB2
:08116C001FFF0000D601200066
:00000001FF
